{
  "_format": "hh-sol-artifact-1",
  "contractName": "Rocket",
  "sourceName": "contracts/Rocket.sol",
  "abi": [
    {
      "inputs": [
        {
          "internalType": "contract IConnextHandler",
          "name": "_connext",
          "type": "address"
        },
        {
          "internalType": "address",
          "name": "_promiseRouter",
          "type": "address"
        }
      ],
      "stateMutability": "nonpayable",
      "type": "constructor"
    },
    {
      "anonymous": false,
      "inputs": [
        {
          "indexed": true,
          "internalType": "address",
          "name": "owner",
          "type": "address"
        },
        {
          "indexed": true,
          "internalType": "address",
          "name": "approved",
          "type": "address"
        },
        {
          "indexed": true,
          "internalType": "uint256",
          "name": "tokenId",
          "type": "uint256"
        }
      ],
      "name": "Approval",
      "type": "event"
    },
    {
      "anonymous": false,
      "inputs": [
        {
          "indexed": true,
          "internalType": "address",
          "name": "owner",
          "type": "address"
        },
        {
          "indexed": true,
          "internalType": "address",
          "name": "operator",
          "type": "address"
        },
        {
          "indexed": false,
          "internalType": "bool",
          "name": "approved",
          "type": "bool"
        }
      ],
      "name": "ApprovalForAll",
      "type": "event"
    },
    {
      "anonymous": false,
      "inputs": [
        {
          "indexed": false,
          "internalType": "bytes32",
          "name": "transferId",
          "type": "bytes32"
        },
        {
          "indexed": false,
          "internalType": "bool",
          "name": "success",
          "type": "bool"
        },
        {
          "indexed": false,
          "internalType": "uint32",
          "name": "originDomain",
          "type": "uint32"
        },
        {
          "indexed": false,
          "internalType": "uint32",
          "name": "destinationDomain",
          "type": "uint32"
        },
        {
          "indexed": false,
          "internalType": "uint256",
          "name": "tokenId",
          "type": "uint256"
        }
      ],
      "name": "BridgeConfirmed",
      "type": "event"
    },
    {
      "anonymous": false,
      "inputs": [
        {
          "indexed": false,
          "internalType": "uint256",
          "name": "chainId",
          "type": "uint256"
        },
        {
          "indexed": false,
          "internalType": "address",
          "name": "contractAddress",
          "type": "address"
        },
        {
          "indexed": false,
          "internalType": "uint256",
          "name": "tokenId",
          "type": "uint256"
        },
        {
          "indexed": false,
          "internalType": "address",
          "name": "owner",
          "type": "address"
        },
        {
          "indexed": false,
          "internalType": "string",
          "name": "uri",
          "type": "string"
        }
      ],
      "name": "BridgeStarted",
      "type": "event"
    },
    {
      "anonymous": false,
      "inputs": [
        {
          "indexed": true,
          "internalType": "bytes32",
          "name": "role",
          "type": "bytes32"
        },
        {
          "indexed": true,
          "internalType": "bytes32",
          "name": "previousAdminRole",
          "type": "bytes32"
        },
        {
          "indexed": true,
          "internalType": "bytes32",
          "name": "newAdminRole",
          "type": "bytes32"
        }
      ],
      "name": "RoleAdminChanged",
      "type": "event"
    },
    {
      "anonymous": false,
      "inputs": [
        {
          "indexed": true,
          "internalType": "bytes32",
          "name": "role",
          "type": "bytes32"
        },
        {
          "indexed": true,
          "internalType": "address",
          "name": "account",
          "type": "address"
        },
        {
          "indexed": true,
          "internalType": "address",
          "name": "sender",
          "type": "address"
        }
      ],
      "name": "RoleGranted",
      "type": "event"
    },
    {
      "anonymous": false,
      "inputs": [
        {
          "indexed": true,
          "internalType": "bytes32",
          "name": "role",
          "type": "bytes32"
        },
        {
          "indexed": true,
          "internalType": "address",
          "name": "account",
          "type": "address"
        },
        {
          "indexed": true,
          "internalType": "address",
          "name": "sender",
          "type": "address"
        }
      ],
      "name": "RoleRevoked",
      "type": "event"
    },
    {
      "anonymous": false,
      "inputs": [
        {
          "indexed": true,
          "internalType": "address",
          "name": "from",
          "type": "address"
        },
        {
          "indexed": true,
          "internalType": "address",
          "name": "to",
          "type": "address"
        },
        {
          "indexed": true,
          "internalType": "uint256",
          "name": "tokenId",
          "type": "uint256"
        }
      ],
      "name": "Transfer",
      "type": "event"
    },
    {
      "inputs": [],
      "name": "DEFAULT_ADMIN_ROLE",
      "outputs": [
        {
          "internalType": "bytes32",
          "name": "",
          "type": "bytes32"
        }
      ],
      "stateMutability": "view",
      "type": "function"
    },
    {
      "inputs": [],
      "name": "METADATA_ROLE",
      "outputs": [
        {
          "internalType": "bytes32",
          "name": "",
          "type": "bytes32"
        }
      ],
      "stateMutability": "view",
      "type": "function"
    },
    {
      "inputs": [],
      "name": "MINTER_ROLE",
      "outputs": [
        {
          "internalType": "bytes32",
          "name": "",
          "type": "bytes32"
        }
      ],
      "stateMutability": "view",
      "type": "function"
    },
    {
      "inputs": [],
      "name": "_tokenIdCounter",
      "outputs": [
        {
          "internalType": "uint256",
          "name": "_value",
          "type": "uint256"
        }
      ],
      "stateMutability": "view",
      "type": "function"
    },
    {
      "inputs": [
        {
          "internalType": "address",
          "name": "to",
          "type": "address"
        },
        {
          "internalType": "uint256",
          "name": "tokenId",
          "type": "uint256"
        }
      ],
      "name": "approve",
      "outputs": [],
      "stateMutability": "nonpayable",
      "type": "function"
    },
    {
      "inputs": [
        {
          "internalType": "address",
          "name": "owner",
          "type": "address"
        }
      ],
      "name": "balanceOf",
      "outputs": [
        {
          "internalType": "uint256",
          "name": "",
          "type": "uint256"
        }
      ],
      "stateMutability": "view",
      "type": "function"
    },
    {
      "inputs": [
        {
          "internalType": "address",
          "name": "to",
          "type": "address"
        },
        {
          "internalType": "uint256",
          "name": "tokenId",
          "type": "uint256"
        },
        {
          "internalType": "string",
          "name": "uri",
          "type": "string"
        }
      ],
      "name": "bridgeArrive",
      "outputs": [],
      "stateMutability": "nonpayable",
      "type": "function"
    },
    {
      "inputs": [
        {
          "internalType": "uint32",
          "name": "originDomain",
          "type": "uint32"
        },
        {
          "internalType": "uint32",
          "name": "destinationDomain",
          "type": "uint32"
        },
        {
          "internalType": "address",
          "name": "destinationContract",
          "type": "address"
        },
        {
          "internalType": "uint256",
          "name": "tokenId",
          "type": "uint256"
        },
        {
          "internalType": "string",
          "name": "uri",
          "type": "string"
        }
      ],
      "name": "bridgeDepart",
      "outputs": [],
      "stateMutability": "payable",
      "type": "function"
    },
    {
      "inputs": [
        {
          "internalType": "uint256",
          "name": "tokenId",
          "type": "uint256"
        }
      ],
      "name": "burn",
      "outputs": [],
      "stateMutability": "nonpayable",
      "type": "function"
    },
    {
      "inputs": [
        {
          "internalType": "bytes32",
          "name": "transferId",
          "type": "bytes32"
        },
        {
          "internalType": "bool",
          "name": "success",
          "type": "bool"
        },
        {
          "internalType": "bytes",
          "name": "data",
          "type": "bytes"
        }
      ],
      "name": "callback",
      "outputs": [],
      "stateMutability": "nonpayable",
      "type": "function"
    },
    {
      "inputs": [],
      "name": "connext",
      "outputs": [
        {
          "internalType": "contract IConnextHandler",
          "name": "",
          "type": "address"
        }
      ],
      "stateMutability": "view",
      "type": "function"
    },
    {
      "inputs": [],
      "name": "executor",
      "outputs": [
        {
          "internalType": "contract IExecutor",
          "name": "",
          "type": "address"
        }
      ],
      "stateMutability": "view",
      "type": "function"
    },
    {
      "inputs": [
        {
          "internalType": "uint256",
          "name": "tokenId",
          "type": "uint256"
        }
      ],
      "name": "getApproved",
      "outputs": [
        {
          "internalType": "address",
          "name": "",
          "type": "address"
        }
      ],
      "stateMutability": "view",
      "type": "function"
    },
    {
      "inputs": [
        {
          "internalType": "bytes32",
          "name": "role",
          "type": "bytes32"
        }
      ],
      "name": "getRoleAdmin",
      "outputs": [
        {
          "internalType": "bytes32",
          "name": "",
          "type": "bytes32"
        }
      ],
      "stateMutability": "view",
      "type": "function"
    },
    {
      "inputs": [
        {
          "internalType": "bytes32",
          "name": "role",
          "type": "bytes32"
        },
        {
          "internalType": "address",
          "name": "account",
          "type": "address"
        }
      ],
      "name": "grantRole",
      "outputs": [],
      "stateMutability": "nonpayable",
      "type": "function"
    },
    {
      "inputs": [
        {
          "internalType": "bytes32",
          "name": "role",
          "type": "bytes32"
        },
        {
          "internalType": "address",
          "name": "account",
          "type": "address"
        }
      ],
      "name": "hasRole",
      "outputs": [
        {
          "internalType": "bool",
          "name": "",
          "type": "bool"
        }
      ],
      "stateMutability": "view",
      "type": "function"
    },
    {
      "inputs": [
        {
          "internalType": "address",
          "name": "owner",
          "type": "address"
        },
        {
          "internalType": "address",
          "name": "operator",
          "type": "address"
        }
      ],
      "name": "isApprovedForAll",
      "outputs": [
        {
          "internalType": "bool",
          "name": "",
          "type": "bool"
        }
      ],
      "stateMutability": "view",
      "type": "function"
    },
    {
      "inputs": [],
      "name": "name",
      "outputs": [
        {
          "internalType": "string",
          "name": "",
          "type": "string"
        }
      ],
      "stateMutability": "view",
      "type": "function"
    },
    {
      "inputs": [
        {
          "internalType": "uint256",
          "name": "tokenId",
          "type": "uint256"
        }
      ],
      "name": "ownerOf",
      "outputs": [
        {
          "internalType": "address",
          "name": "",
          "type": "address"
        }
      ],
      "stateMutability": "view",
      "type": "function"
    },
    {
      "inputs": [],
      "name": "promiseRouter",
      "outputs": [
        {
          "internalType": "address",
          "name": "",
          "type": "address"
        }
      ],
      "stateMutability": "view",
      "type": "function"
    },
    {
      "inputs": [
        {
          "internalType": "bytes32",
          "name": "role",
          "type": "bytes32"
        },
        {
          "internalType": "address",
          "name": "account",
          "type": "address"
        }
      ],
      "name": "renounceRole",
      "outputs": [],
      "stateMutability": "nonpayable",
      "type": "function"
    },
    {
      "inputs": [
        {
          "internalType": "bytes32",
          "name": "role",
          "type": "bytes32"
        },
        {
          "internalType": "address",
          "name": "account",
          "type": "address"
        }
      ],
      "name": "revokeRole",
      "outputs": [],
      "stateMutability": "nonpayable",
      "type": "function"
    },
    {
      "inputs": [
        {
          "internalType": "address",
          "name": "from",
          "type": "address"
        },
        {
          "internalType": "address",
          "name": "to",
          "type": "address"
        },
        {
          "internalType": "uint256",
          "name": "tokenId",
          "type": "uint256"
        }
      ],
      "name": "safeTransferFrom",
      "outputs": [],
      "stateMutability": "nonpayable",
      "type": "function"
    },
    {
      "inputs": [
        {
          "internalType": "address",
          "name": "from",
          "type": "address"
        },
        {
          "internalType": "address",
          "name": "to",
          "type": "address"
        },
        {
          "internalType": "uint256",
          "name": "tokenId",
          "type": "uint256"
        },
        {
          "internalType": "bytes",
          "name": "data",
          "type": "bytes"
        }
      ],
      "name": "safeTransferFrom",
      "outputs": [],
      "stateMutability": "nonpayable",
      "type": "function"
    },
    {
      "inputs": [
        {
          "internalType": "address",
          "name": "to",
          "type": "address"
        }
      ],
      "name": "selfMint",
      "outputs": [],
      "stateMutability": "nonpayable",
      "type": "function"
    },
    {
      "inputs": [
        {
          "internalType": "address",
          "name": "operator",
          "type": "address"
        },
        {
          "internalType": "bool",
          "name": "approved",
          "type": "bool"
        }
      ],
      "name": "setApprovalForAll",
      "outputs": [],
      "stateMutability": "nonpayable",
      "type": "function"
    },
    {
      "inputs": [],
      "name": "setOrigin",
      "outputs": [],
      "stateMutability": "nonpayable",
      "type": "function"
    },
    {
      "inputs": [
        {
          "internalType": "uint256",
          "name": "tokenId",
          "type": "uint256"
        },
        {
          "internalType": "string",
          "name": "_tokenURI",
          "type": "string"
        }
      ],
      "name": "setTokenURI",
      "outputs": [],
      "stateMutability": "nonpayable",
      "type": "function"
    },
    {
      "inputs": [
        {
          "internalType": "bytes4",
          "name": "interfaceId",
          "type": "bytes4"
        }
      ],
      "name": "supportsInterface",
      "outputs": [
        {
          "internalType": "bool",
          "name": "",
          "type": "bool"
        }
      ],
      "stateMutability": "view",
      "type": "function"
    },
    {
      "inputs": [],
      "name": "symbol",
      "outputs": [
        {
          "internalType": "string",
          "name": "",
          "type": "string"
        }
      ],
      "stateMutability": "view",
      "type": "function"
    },
    {
      "inputs": [
        {
          "internalType": "uint256",
          "name": "tokenId",
          "type": "uint256"
        }
      ],
      "name": "tokenURI",
      "outputs": [
        {
          "internalType": "string",
          "name": "",
          "type": "string"
        }
      ],
      "stateMutability": "view",
      "type": "function"
    },
    {
      "inputs": [
        {
          "internalType": "address",
          "name": "from",
          "type": "address"
        },
        {
          "internalType": "address",
          "name": "to",
          "type": "address"
        },
        {
          "internalType": "uint256",
          "name": "tokenId",
          "type": "uint256"
        }
      ],
      "name": "transferFrom",
      "outputs": [],
      "stateMutability": "nonpayable",
      "type": "function"
    }
  ],
  "bytecode": "0x60806040523480156200001157600080fd5b5060405162002c5838038062002c5883398101604081905262000034916200029c565b60405180604001604052806006815260200165149bd8dad95d60d21b8152506040518060400160405280600681526020016504f4e52414d560d41b815250816000908162000083919062000380565b50600162000092828262000380565b50620000a491506000905033620001de565b620000bf60008051602062002c3883398151915233620001de565b620000eb7f6bd6b5318a46e5fff572d5e4258a20774aab40cc35ac7680654b9081fcc82f8033620001de565b6001600160a01b03821615620001d65760098054610100600160a81b0319166101006001600160a01b0385811691820292909217909255600b80546001600160a01b0319169184169190911790556040805163c34c08e560e01b8152905163c34c08e5916004808201926020929091908290030181865afa15801562000175573d6000803e3d6000fd5b505050506040513d601f19601f820116820180604052508101906200019b91906200044c565b600a80546001600160a01b0319166001600160a01b03929092169182179055620001d69060008051602062002c3883398151915290620001de565b505062000473565b60008281526007602090815260408083206001600160a01b038516845290915290205460ff166200027f5760008281526007602090815260408083206001600160a01b03851684529091529020805460ff191660011790556200023e3390565b6001600160a01b0316816001600160a01b0316837f2f8788117e7eff1d82e926ec794901d17c78024a50270940304540a733656f0d60405160405180910390a45b5050565b6001600160a01b03811681146200029957600080fd5b50565b60008060408385031215620002b057600080fd5b8251620002bd8162000283565b6020840151909250620002d08162000283565b809150509250929050565b634e487b7160e01b600052604160045260246000fd5b600181811c908216806200030657607f821691505b6020821081036200032757634e487b7160e01b600052602260045260246000fd5b50919050565b601f8211156200037b57600081815260208120601f850160051c81016020861015620003565750805b601f850160051c820191505b81811015620003775782815560010162000362565b5050505b505050565b81516001600160401b038111156200039c576200039c620002db565b620003b481620003ad8454620002f1565b846200032d565b602080601f831160018114620003ec5760008415620003d35750858301515b600019600386901b1c1916600185901b17855562000377565b600085815260208120601f198616915b828110156200041d57888601518255948401946001909101908401620003fc565b50858210156200043c5787850151600019600388901b60f8161c191681555b5050505050600190811b01905550565b6000602082840312156200045f57600080fd5b81516200046c8162000283565b9392505050565b6127b580620004836000396000f3fe6080604052600436106101735760003560e01c806301ffc9a714610178578063034baf0e146101ad57806304655a9a146101cf57806306fdde03146101e2578063081812fc14610204578063095ea7b31461023c578063141c60421461025c578063162094c41461027157806323b872dd14610291578063248a9ca3146102b15780632f2ff15d146102df57806336568abe146102ff578063388417821461031f57806342842e0e1461034157806342966c681461036157806343b6df66146103815780636352211e146103a157806370a08231146103c157806372dbadfc146103e157806384c4bd4b1461040157806391d148541461041857806395d89b4114610438578063a217fddf1461044d578063a22cb46514610462578063a315cc5f14610482578063b88d4fde146104a2578063c34c08e5146104c2578063c87b56dd146104e2578063d539139314610502578063d547741f14610524578063de4b054814610544578063e985e9c514610569575b600080fd5b34801561018457600080fd5b50610198610193366004611c4e565b610589565b60405190151581526020015b60405180910390f35b3480156101b957600080fd5b506101cd6101c8366004611d2b565b61059a565b005b6101cd6101dd366004611df2565b610676565b3480156101ee57600080fd5b506101f7610906565b6040516101a49190611ecc565b34801561021057600080fd5b5061022461021f366004611edf565b610998565b6040516001600160a01b0390911681526020016101a4565b34801561024857600080fd5b506101cd610257366004611f05565b6109bf565b34801561026857600080fd5b506101cd610ad4565b34801561027d57600080fd5b506101cd61028c366004611f2f565b610aef565b34801561029d57600080fd5b506101cd6102ac366004611f7a565b610b4d565b3480156102bd57600080fd5b506102d16102cc366004611edf565b610b7f565b6040519081526020016101a4565b3480156102eb57600080fd5b506101cd6102fa366004611fb6565b610b94565b34801561030b57600080fd5b506101cd61031a366004611fb6565b610bb0565b34801561032b57600080fd5b506102d160008051602061272083398151915281565b34801561034d57600080fd5b506101cd61035c366004611f7a565b610c2e565b34801561036d57600080fd5b506101cd61037c366004611edf565b610c49565b34801561038d57600080fd5b506101cd61039c366004611fe2565b610c7a565b3480156103ad57600080fd5b506102246103bc366004611edf565b610cf6565b3480156103cd57600080fd5b506102d16103dc366004611fe2565b610d2b565b3480156103ed57600080fd5b50600b54610224906001600160a01b031681565b34801561040d57600080fd5b506008546102d19081565b34801561042457600080fd5b50610198610433366004611fb6565b610db1565b34801561044457600080fd5b506101f7610ddc565b34801561045957600080fd5b506102d1600081565b34801561046e57600080fd5b506101cd61047d366004611ffd565b610deb565b34801561048e57600080fd5b506101cd61049d366004612027565b610df6565b3480156104ae57600080fd5b506101cd6104bd366004612087565b610e22565b3480156104ce57600080fd5b50600a54610224906001600160a01b031681565b3480156104ee57600080fd5b506101f76104fd366004611edf565b610e54565b34801561050e57600080fd5b506102d160008051602061274083398151915281565b34801561053057600080fd5b506101cd61053f366004611fb6565b610e5f565b34801561055057600080fd5b506009546102249061010090046001600160a01b031681565b34801561057557600080fd5b506101986105843660046120ee565b610e7b565b600061059482610ea9565b92915050565b600b546001600160a01b031633146105f25760405162461bcd60e51b815260206004820152601660248201527522bc3832b1ba32b210283937b6b4b9b2a937baba32b960511b60448201526064015b60405180910390fd5b60008060008380602001905181019061060b9190612118565b604080518a8152891515602082015263ffffffff8086169282019290925290831660608201526080810182905292955090935091507fca8f16abc1bceaefe48ce298eeaaee15752d0beca00d0c8f6eb6d4efd4856da59060a0015b60405180910390a1505050505050565b3361068084610cf6565b6001600160a01b0316146106c85760405162461bcd60e51b815260206004820152600f60248201526e1b9bdd081e5bdd5c881c9bd8dad95d608a1b60448201526064016105e9565b6106d183610ece565b8463ffffffff1663676f657214806106f257508463ffffffff1663676f7074145b156108bf576040517fa315cc5f69cc64e15a7c99dcae7423ad2a4cd4bba94ca12a1d20945f88e868699060009063a315cc5f60e01b9061073c903090889088908890602401612184565b604051602081830303815290604052906001600160e01b0319166020820180516001600160e01b03838183161783525050505090506000604051806101800160405280886001600160a01b031681526020018381526020018a63ffffffff1681526020018963ffffffff168152602001336001600160a01b03168152602001336001600160a01b03168152602001600115158152602001600015158152602001306001600160a01b031681526020016000815260200160008152602001600081525090506000604051806080016040528083815260200160006001600160a01b031681526020016000815260200160008152509050600960019054906101000a90046001600160a01b03166001600160a01b03166335c94dfc826040518263ffffffff1660e01b815260040161087291906121b6565b6020604051808303816000875af1158015610891573d6000803e3d6000fd5b505050506040513d601f19601f820116820180604052508101906108b591906122d9565b50505050506108fe565b7f686aedfb441ee49b13b922ecbe15b222fd5cc809fda3a70bac013ae370c0c9a88563ffffffff168585338686604051610666969594939291906122f2565b505050505050565b60606000805461091590612338565b80601f016020809104026020016040519081016040528092919081815260200182805461094190612338565b801561098e5780601f106109635761010080835404028352916020019161098e565b820191906000526020600020905b81548152906001019060200180831161097157829003601f168201915b5050505050905090565b60006109a382610ed7565b506000908152600460205260409020546001600160a01b031690565b60006109ca82610cf6565b9050806001600160a01b0316836001600160a01b031603610a375760405162461bcd60e51b815260206004820152602160248201527f4552433732313a20617070726f76616c20746f2063757272656e74206f776e656044820152603960f91b60648201526084016105e9565b336001600160a01b0382161480610a535750610a538133610e7b565b610ac55760405162461bcd60e51b815260206004820152603e60248201527f4552433732313a20617070726f76652063616c6c6572206973206e6f7420746f60448201527f6b656e206f776e6572206e6f7220617070726f76656420666f7220616c6c000060648201526084016105e9565b610acf8383610efc565b505050565b6000610adf81610f6a565b506009805460ff19166001179055565b600080516020612720833981519152610b0781610f6a565b610b478484848080601f016020809104026020016040519081016040528093929190818152602001838380828437600092019190915250610f7492505050565b50505050565b610b58335b82610ff8565b610b745760405162461bcd60e51b81526004016105e990612372565b610acf838383611057565b60009081526007602052604090206001015490565b610b9d82610b7f565b610ba681610f6a565b610acf83836111e1565b6001600160a01b0381163314610c205760405162461bcd60e51b815260206004820152602f60248201527f416363657373436f6e74726f6c3a2063616e206f6e6c792072656e6f756e636560448201526e103937b632b9903337b91039b2b63360891b60648201526084016105e9565b610c2a8282611267565b5050565b610acf83838360405180602001604052806000815250610e22565b610c5233610b52565b610c6e5760405162461bcd60e51b81526004016105e990612372565b610c7781610ece565b50565b60095460ff161515600114610cd15760405162461bcd60e51b815260206004820181905260248201527f7075626c6963206d696e74206f6e6c79206f6e206f726967696e20636861696e60448201526064016105e9565b6000610cdc60085490565b9050610cec600880546001019055565b610c2a82826112ce565b6000818152600260205260408120546001600160a01b0316806105945760405162461bcd60e51b81526004016105e9906123c0565b60006001600160a01b038216610d955760405162461bcd60e51b815260206004820152602960248201527f4552433732313a2061646472657373207a65726f206973206e6f7420612076616044820152683634b21037bbb732b960b91b60648201526084016105e9565b506001600160a01b031660009081526003602052604090205490565b60009182526007602090815260408084206001600160a01b0393909316845291905290205460ff1690565b60606001805461091590612338565b610c2a3383836112e8565b600080516020612740833981519152610e0e81610f6a565b610e1884846112ce565b610b478383610f74565b610e2c3383610ff8565b610e485760405162461bcd60e51b81526004016105e990612372565b610b47848484846113b2565b6060610594826113e5565b610e6882610b7f565b610e7181610f6a565b610acf8383611267565b6001600160a01b03918216600090815260056020908152604080832093909416825291909152205460ff1690565b60006001600160e01b03198216637965db0b60e01b14806105945750610594826114ed565b610c778161153d565b610ee08161157d565b610c775760405162461bcd60e51b81526004016105e9906123c0565b600081815260046020526040902080546001600160a01b0319166001600160a01b0384169081179091558190610f3182610cf6565b6001600160a01b03167f8c5be1e5ebec7d5bd14f71427d1e84f3dd0314c0f7b2291e5b200ac8c7c3b92560405160405180910390a45050565b610c77813361159a565b610f7d8261157d565b610fe05760405162461bcd60e51b815260206004820152602e60248201527f45524337323155524953746f726167653a2055524920736574206f66206e6f6e60448201526d32bc34b9ba32b73a103a37b5b2b760911b60648201526084016105e9565b6000828152600660205260409020610acf8282612438565b60008061100483610cf6565b9050806001600160a01b0316846001600160a01b0316148061102b575061102b8185610e7b565b8061104f5750836001600160a01b031661104484610998565b6001600160a01b0316145b949350505050565b826001600160a01b031661106a82610cf6565b6001600160a01b0316146110ce5760405162461bcd60e51b815260206004820152602560248201527f4552433732313a207472616e736665722066726f6d20696e636f72726563742060448201526437bbb732b960d91b60648201526084016105e9565b6001600160a01b0382166111305760405162461bcd60e51b8152602060048201526024808201527f4552433732313a207472616e7366657220746f20746865207a65726f206164646044820152637265737360e01b60648201526084016105e9565b61113b600082610efc565b6001600160a01b038316600090815260036020526040812080546001929061116490849061250d565b90915550506001600160a01b0382166000908152600360205260408120805460019290611192908490612524565b909155505060008181526002602052604080822080546001600160a01b0319166001600160a01b03868116918217909255915184939187169160008051602061276083398151915291a4505050565b6111eb8282610db1565b610c2a5760008281526007602090815260408083206001600160a01b03851684529091529020805460ff191660011790556112233390565b6001600160a01b0316816001600160a01b0316837f2f8788117e7eff1d82e926ec794901d17c78024a50270940304540a733656f0d60405160405180910390a45050565b6112718282610db1565b15610c2a5760008281526007602090815260408083206001600160a01b0385168085529252808320805460ff1916905551339285917ff6391f5c32d9c69d2a47ea670b442974b53935d1edc7fd64eb21e047a839171b9190a45050565b610c2a8282604051806020016040528060008152506115fe565b816001600160a01b0316836001600160a01b0316036113455760405162461bcd60e51b815260206004820152601960248201527822a9219b99189d1030b8383937bb32903a379031b0b63632b960391b60448201526064016105e9565b6001600160a01b03838116600081815260056020908152604080832094871680845294825291829020805460ff191686151590811790915591519182527f17307eab39ab6107e8899845ad3d59bd9653f200f220920489ca2b5937696c31910160405180910390a3505050565b6113bd848484611057565b6113c984848484611631565b610b475760405162461bcd60e51b81526004016105e99061253c565b60606113f082610ed7565b6000828152600660205260408120805461140990612338565b80601f016020809104026020016040519081016040528092919081815260200182805461143590612338565b80156114825780601f1061145757610100808354040283529160200191611482565b820191906000526020600020905b81548152906001019060200180831161146557829003601f168201915b5050505050905060006114a060408051602081019091526000815290565b905080516000036114b2575092915050565b8151156114e45780826040516020016114cc92919061258e565b60405160208183030381529060405292505050919050565b61104f84611732565b60006001600160e01b031982166380ac58cd60e01b148061151e57506001600160e01b03198216635b5e139f60e01b145b8061059457506301ffc9a760e01b6001600160e01b0319831614610594565b611546816117a6565b6000818152600660205260409020805461155f90612338565b159050610c77576000818152600660205260408120610c7791611bea565b6000908152600260205260409020546001600160a01b0316151590565b6115a48282610db1565b610c2a576115bc816001600160a01b0316601461182f565b6115c783602061182f565b6040516020016115d89291906125bd565b60408051601f198184030181529082905262461bcd60e51b82526105e991600401611ecc565b61160883836119ca565b6116156000848484611631565b610acf5760405162461bcd60e51b81526004016105e99061253c565b60006001600160a01b0384163b1561172757604051630a85bd0160e11b81526001600160a01b0385169063150b7a029061167590339089908890889060040161262c565b6020604051808303816000875af19250505080156116b0575060408051601f3d908101601f191682019092526116ad9181019061265f565b60015b61170d573d8080156116de576040519150601f19603f3d011682016040523d82523d6000602084013e6116e3565b606091505b5080516000036117055760405162461bcd60e51b81526004016105e99061253c565b805181602001fd5b6001600160e01b031916630a85bd0160e11b14905061104f565b506001949350505050565b606061173d82610ed7565b600061175460408051602081019091526000815290565b90506000815111611774576040518060200160405280600081525061179f565b8061177e84611aea565b60405160200161178f92919061258e565b6040516020818303038152906040525b9392505050565b60006117b182610cf6565b90506117be600083610efc565b6001600160a01b03811660009081526003602052604081208054600192906117e790849061250d565b909155505060008281526002602052604080822080546001600160a01b0319169055518391906001600160a01b03841690600080516020612760833981519152908390a45050565b6060600061183e83600261267c565b611849906002612524565b6001600160401b0381111561186057611860611c80565b6040519080825280601f01601f19166020018201604052801561188a576020820181803683370190505b509050600360fc1b816000815181106118a5576118a561269b565b60200101906001600160f81b031916908160001a905350600f60fb1b816001815181106118d4576118d461269b565b60200101906001600160f81b031916908160001a90535060006118f884600261267c565b611903906001612524565b90505b600181111561197b576f181899199a1a9b1b9c1cb0b131b232b360811b85600f16601081106119375761193761269b565b1a60f81b82828151811061194d5761194d61269b565b60200101906001600160f81b031916908160001a90535060049490941c93611974816126b1565b9050611906565b50831561179f5760405162461bcd60e51b815260206004820181905260248201527f537472696e67733a20686578206c656e67746820696e73756666696369656e7460448201526064016105e9565b6001600160a01b038216611a205760405162461bcd60e51b815260206004820181905260248201527f4552433732313a206d696e7420746f20746865207a65726f206164647265737360448201526064016105e9565b611a298161157d565b15611a755760405162461bcd60e51b815260206004820152601c60248201527b115490cdcc8c4e881d1bdad95b88185b1c9958591e481b5a5b9d195960221b60448201526064016105e9565b6001600160a01b0382166000908152600360205260408120805460019290611a9e908490612524565b909155505060008181526002602052604080822080546001600160a01b0319166001600160a01b0386169081179091559051839290600080516020612760833981519152908290a45050565b606081600003611b115750506040805180820190915260018152600360fc1b602082015290565b8160005b8115611b3b5780611b25816126c8565b9150611b349050600a836126f7565b9150611b15565b6000816001600160401b03811115611b5557611b55611c80565b6040519080825280601f01601f191660200182016040528015611b7f576020820181803683370190505b5090505b841561104f57611b9460018361250d565b9150611ba1600a8661270b565b611bac906030612524565b60f81b818381518110611bc157611bc161269b565b60200101906001600160f81b031916908160001a905350611be3600a866126f7565b9450611b83565b508054611bf690612338565b6000825580601f10611c06575050565b601f016020900490600052602060002090810190610c7791905b80821115611c345760008155600101611c20565b5090565b6001600160e01b031981168114610c7757600080fd5b600060208284031215611c6057600080fd5b813561179f81611c38565b80358015158114611c7b57600080fd5b919050565b634e487b7160e01b600052604160045260246000fd5b60006001600160401b0380841115611cb057611cb0611c80565b604051601f8501601f19908116603f01168101908282118183101715611cd857611cd8611c80565b81604052809350858152868686011115611cf157600080fd5b858560208301376000602087830101525050509392505050565b600082601f830112611d1c57600080fd5b61179f83833560208501611c96565b600080600060608486031215611d4057600080fd5b83359250611d5060208501611c6b565b915060408401356001600160401b03811115611d6b57600080fd5b611d7786828701611d0b565b9150509250925092565b63ffffffff81168114610c7757600080fd5b80356001600160a01b0381168114611c7b57600080fd5b60008083601f840112611dbc57600080fd5b5081356001600160401b03811115611dd357600080fd5b602083019150836020828501011115611deb57600080fd5b9250929050565b60008060008060008060a08789031215611e0b57600080fd5b8635611e1681611d81565b95506020870135611e2681611d81565b9450611e3460408801611d93565b93506060870135925060808701356001600160401b03811115611e5657600080fd5b611e6289828a01611daa565b979a9699509497509295939492505050565b60005b83811015611e8f578181015183820152602001611e77565b83811115610b475750506000910152565b60008151808452611eb8816020860160208601611e74565b601f01601f19169290920160200192915050565b60208152600061179f6020830184611ea0565b600060208284031215611ef157600080fd5b5035919050565b6001600160a01b03169052565b60008060408385031215611f1857600080fd5b611f2183611d93565b946020939093013593505050565b600080600060408486031215611f4457600080fd5b8335925060208401356001600160401b03811115611f6157600080fd5b611f6d86828701611daa565b9497909650939450505050565b600080600060608486031215611f8f57600080fd5b611f9884611d93565b9250611fa660208501611d93565b9150604084013590509250925092565b60008060408385031215611fc957600080fd5b82359150611fd960208401611d93565b90509250929050565b600060208284031215611ff457600080fd5b61179f82611d93565b6000806040838503121561201057600080fd5b61201983611d93565b9150611fd960208401611c6b565b60008060006060848603121561203c57600080fd5b61204584611d93565b92506020840135915060408401356001600160401b0381111561206757600080fd5b8401601f8101861361207857600080fd5b611d7786823560208401611c96565b6000806000806080858703121561209d57600080fd5b6120a685611d93565b93506120b460208601611d93565b92506040850135915060608501356001600160401b038111156120d657600080fd5b6120e287828801611d0b565b91505092959194509250565b6000806040838503121561210157600080fd5b61210a83611d93565b9150611fd960208401611d93565b60008060006060848603121561212d57600080fd5b835161213881611d81565b602085015190935061214981611d81565b80925050604084015190509250925092565b81835281816020850137506000828201602090810191909152601f909101601f19169091010190565b60018060a01b03851681528360208201526060604082015260006121ac60608301848661215b565b9695505050505050565b6020815260008251608060208401526121d360a084018251611ef8565b60208101516101808060c08601526121ef610220860183611ea0565b9150604083015161220860e087018263ffffffff169052565b5060608301516101006122228188018363ffffffff169052565b6080850151915061012061223881890184611ef8565b60a0860151925061014061224e818a0185611ef8565b60c08701519350610160612265818b018615159052565b60e08801518015158b88015294508388015195506122876101a08b0187611ef8565b918701516101c08a01528601516101e0890152909401516102008701525050602085015191506122ba6040850183611ef8565b6040850151606085015260608501516080850152809250505092915050565b6000602082840312156122eb57600080fd5b5051919050565b8681526001600160a01b038681166020830152604082018690528416606082015260a06080820181905260009061232c908301848661215b565b98975050505050505050565b600181811c9082168061234c57607f821691505b60208210810361236c57634e487b7160e01b600052602260045260246000fd5b50919050565b6020808252602e908201527f4552433732313a2063616c6c6572206973206e6f7420746f6b656e206f776e6560408201526d1c881b9bdc88185c1c1c9bdd995960921b606082015260800190565b602080825260189082015277115490cdcc8c4e881a5b9d985b1a59081d1bdad95b88125160421b604082015260600190565b601f821115610acf57600081815260208120601f850160051c810160208610156124195750805b601f850160051c820191505b818110156108fe57828155600101612425565b81516001600160401b0381111561245157612451611c80565b6124658161245f8454612338565b846123f2565b602080601f83116001811461249a57600084156124825750858301515b600019600386901b1c1916600185901b1785556108fe565b600085815260208120601f198616915b828110156124c9578886015182559484019460019091019084016124aa565b50858210156124e75787850151600019600388901b60f8161c191681555b5050505050600190811b01905550565b634e487b7160e01b600052601160045260246000fd5b60008282101561251f5761251f6124f7565b500390565b60008219821115612537576125376124f7565b500190565b60208082526032908201527f4552433732313a207472616e7366657220746f206e6f6e20455243373231526560408201527131b2b4bb32b91034b6b83632b6b2b73a32b960711b606082015260800190565b600083516125a0818460208801611e74565b8351908301906125b4818360208801611e74565b01949350505050565b76020b1b1b2b9b9a1b7b73a3937b61d1030b1b1b7bab73a1604d1b8152600083516125ef816017850160208801611e74565b7001034b99036b4b9b9b4b733903937b6329607d1b6017918401918201528351612620816028840160208801611e74565b01602801949350505050565b6001600160a01b03858116825284166020820152604081018390526080606082018190526000906121ac90830184611ea0565b60006020828403121561267157600080fd5b815161179f81611c38565b6000816000190483118215151615612696576126966124f7565b500290565b634e487b7160e01b600052603260045260246000fd5b6000816126c0576126c06124f7565b506000190190565b6000600182016126da576126da6124f7565b5060010190565b634e487b7160e01b600052601260045260246000fd5b600082612706576127066126e1565b500490565b60008261271a5761271a6126e1565b50069056fe6bd6b5318a46e5fff572d5e4258a20774aab40cc35ac7680654b9081fcc82f809f2df0fed2c77648de5860a4cc508cd0818c85b8b8a1ab4ceeef8d981c8956a6ddf252ad1be2c89b69c2b068fc378daa952ba7f163c4a11628f55a4df523b3efa26469706673582212201bb7cc4c09bc92d808e7a72cff4a61dc1a872e78ff09197734f1c1b7d2c67a9f64736f6c634300080f00339f2df0fed2c77648de5860a4cc508cd0818c85b8b8a1ab4ceeef8d981c8956a6",
  "linkReferences": {},
  "deployedLinkReferences": {}
}