{
  "_format": "hh-sol-artifact-1",
  "contractName": "Rocket",
  "sourceName": "contracts/Rocket.sol",
  "abi": [
    {
      "inputs": [
        {
          "internalType": "contract IConnextHandler",
          "name": "_connext",
          "type": "address"
        },
        {
          "internalType": "address",
          "name": "_promiseRouter",
          "type": "address"
        },
        {
          "internalType": "address",
          "name": "_testToken",
          "type": "address"
        }
      ],
      "stateMutability": "nonpayable",
      "type": "constructor"
    },
    {
      "anonymous": false,
      "inputs": [
        {
          "indexed": true,
          "internalType": "address",
          "name": "owner",
          "type": "address"
        },
        {
          "indexed": true,
          "internalType": "address",
          "name": "approved",
          "type": "address"
        },
        {
          "indexed": true,
          "internalType": "uint256",
          "name": "tokenId",
          "type": "uint256"
        }
      ],
      "name": "Approval",
      "type": "event"
    },
    {
      "anonymous": false,
      "inputs": [
        {
          "indexed": true,
          "internalType": "address",
          "name": "owner",
          "type": "address"
        },
        {
          "indexed": true,
          "internalType": "address",
          "name": "operator",
          "type": "address"
        },
        {
          "indexed": false,
          "internalType": "bool",
          "name": "approved",
          "type": "bool"
        }
      ],
      "name": "ApprovalForAll",
      "type": "event"
    },
    {
      "anonymous": false,
      "inputs": [
        {
          "indexed": false,
          "internalType": "bytes32",
          "name": "transferId",
          "type": "bytes32"
        },
        {
          "indexed": false,
          "internalType": "bool",
          "name": "success",
          "type": "bool"
        },
        {
          "indexed": false,
          "internalType": "uint32",
          "name": "originDomain",
          "type": "uint32"
        },
        {
          "indexed": false,
          "internalType": "uint32",
          "name": "destinationDomain",
          "type": "uint32"
        },
        {
          "indexed": false,
          "internalType": "uint256",
          "name": "tokenId",
          "type": "uint256"
        }
      ],
      "name": "BridgeConfirmed",
      "type": "event"
    },
    {
      "anonymous": false,
      "inputs": [
        {
          "indexed": false,
          "internalType": "uint256",
          "name": "chainId",
          "type": "uint256"
        },
        {
          "indexed": false,
          "internalType": "address",
          "name": "contractAddress",
          "type": "address"
        },
        {
          "indexed": false,
          "internalType": "uint256",
          "name": "tokenId",
          "type": "uint256"
        },
        {
          "indexed": false,
          "internalType": "address",
          "name": "owner",
          "type": "address"
        },
        {
          "indexed": false,
          "internalType": "string",
          "name": "uri",
          "type": "string"
        }
      ],
      "name": "Landed",
      "type": "event"
    },
    {
      "anonymous": false,
      "inputs": [
        {
          "indexed": false,
          "internalType": "uint256",
          "name": "chainId",
          "type": "uint256"
        },
        {
          "indexed": false,
          "internalType": "address",
          "name": "contractAddress",
          "type": "address"
        },
        {
          "indexed": false,
          "internalType": "uint256",
          "name": "tokenId",
          "type": "uint256"
        },
        {
          "indexed": false,
          "internalType": "address",
          "name": "owner",
          "type": "address"
        },
        {
          "indexed": false,
          "internalType": "string",
          "name": "uri",
          "type": "string"
        }
      ],
      "name": "Launched",
      "type": "event"
    },
    {
      "anonymous": false,
      "inputs": [
        {
          "indexed": true,
          "internalType": "bytes32",
          "name": "role",
          "type": "bytes32"
        },
        {
          "indexed": true,
          "internalType": "bytes32",
          "name": "previousAdminRole",
          "type": "bytes32"
        },
        {
          "indexed": true,
          "internalType": "bytes32",
          "name": "newAdminRole",
          "type": "bytes32"
        }
      ],
      "name": "RoleAdminChanged",
      "type": "event"
    },
    {
      "anonymous": false,
      "inputs": [
        {
          "indexed": true,
          "internalType": "bytes32",
          "name": "role",
          "type": "bytes32"
        },
        {
          "indexed": true,
          "internalType": "address",
          "name": "account",
          "type": "address"
        },
        {
          "indexed": true,
          "internalType": "address",
          "name": "sender",
          "type": "address"
        }
      ],
      "name": "RoleGranted",
      "type": "event"
    },
    {
      "anonymous": false,
      "inputs": [
        {
          "indexed": true,
          "internalType": "bytes32",
          "name": "role",
          "type": "bytes32"
        },
        {
          "indexed": true,
          "internalType": "address",
          "name": "account",
          "type": "address"
        },
        {
          "indexed": true,
          "internalType": "address",
          "name": "sender",
          "type": "address"
        }
      ],
      "name": "RoleRevoked",
      "type": "event"
    },
    {
      "anonymous": false,
      "inputs": [
        {
          "indexed": true,
          "internalType": "address",
          "name": "from",
          "type": "address"
        },
        {
          "indexed": true,
          "internalType": "address",
          "name": "to",
          "type": "address"
        },
        {
          "indexed": true,
          "internalType": "uint256",
          "name": "tokenId",
          "type": "uint256"
        }
      ],
      "name": "Transfer",
      "type": "event"
    },
    {
      "inputs": [],
      "name": "DEFAULT_ADMIN_ROLE",
      "outputs": [
        {
          "internalType": "bytes32",
          "name": "",
          "type": "bytes32"
        }
      ],
      "stateMutability": "view",
      "type": "function"
    },
    {
      "inputs": [],
      "name": "METADATA_ROLE",
      "outputs": [
        {
          "internalType": "bytes32",
          "name": "",
          "type": "bytes32"
        }
      ],
      "stateMutability": "view",
      "type": "function"
    },
    {
      "inputs": [],
      "name": "MINTER_ROLE",
      "outputs": [
        {
          "internalType": "bytes32",
          "name": "",
          "type": "bytes32"
        }
      ],
      "stateMutability": "view",
      "type": "function"
    },
    {
      "inputs": [],
      "name": "_tokenIdCounter",
      "outputs": [
        {
          "internalType": "uint256",
          "name": "_value",
          "type": "uint256"
        }
      ],
      "stateMutability": "view",
      "type": "function"
    },
    {
      "inputs": [
        {
          "internalType": "address",
          "name": "to",
          "type": "address"
        },
        {
          "internalType": "uint256",
          "name": "tokenId",
          "type": "uint256"
        }
      ],
      "name": "approve",
      "outputs": [],
      "stateMutability": "nonpayable",
      "type": "function"
    },
    {
      "inputs": [
        {
          "internalType": "address",
          "name": "owner",
          "type": "address"
        }
      ],
      "name": "balanceOf",
      "outputs": [
        {
          "internalType": "uint256",
          "name": "",
          "type": "uint256"
        }
      ],
      "stateMutability": "view",
      "type": "function"
    },
    {
      "inputs": [
        {
          "internalType": "address",
          "name": "to",
          "type": "address"
        },
        {
          "internalType": "uint256",
          "name": "tokenId",
          "type": "uint256"
        },
        {
          "internalType": "string",
          "name": "uri",
          "type": "string"
        }
      ],
      "name": "bridgeArrive",
      "outputs": [],
      "stateMutability": "nonpayable",
      "type": "function"
    },
    {
      "inputs": [
        {
          "internalType": "address",
          "name": "to",
          "type": "address"
        },
        {
          "internalType": "uint256",
          "name": "tokenId",
          "type": "uint256"
        },
        {
          "internalType": "string",
          "name": "uri",
          "type": "string"
        }
      ],
      "name": "bridgeArriveDemo",
      "outputs": [],
      "stateMutability": "nonpayable",
      "type": "function"
    },
    {
      "inputs": [
        {
          "internalType": "uint32",
          "name": "fromDomain",
          "type": "uint32"
        },
        {
          "internalType": "uint32",
          "name": "destinationDomain",
          "type": "uint32"
        },
        {
          "internalType": "address",
          "name": "destinationContract",
          "type": "address"
        },
        {
          "internalType": "uint256",
          "name": "tokenId",
          "type": "uint256"
        },
        {
          "internalType": "string",
          "name": "uri",
          "type": "string"
        },
        {
          "internalType": "bool",
          "name": "express",
          "type": "bool"
        }
      ],
      "name": "bridgeDepart",
      "outputs": [],
      "stateMutability": "payable",
      "type": "function"
    },
    {
      "inputs": [
        {
          "internalType": "uint256",
          "name": "tokenId",
          "type": "uint256"
        }
      ],
      "name": "burn",
      "outputs": [],
      "stateMutability": "nonpayable",
      "type": "function"
    },
    {
      "inputs": [
        {
          "internalType": "bytes32",
          "name": "transferId",
          "type": "bytes32"
        },
        {
          "internalType": "bool",
          "name": "success",
          "type": "bool"
        },
        {
          "internalType": "bytes",
          "name": "data",
          "type": "bytes"
        }
      ],
      "name": "callback",
      "outputs": [],
      "stateMutability": "nonpayable",
      "type": "function"
    },
    {
      "inputs": [],
      "name": "connext",
      "outputs": [
        {
          "internalType": "contract IConnextHandler",
          "name": "",
          "type": "address"
        }
      ],
      "stateMutability": "view",
      "type": "function"
    },
    {
      "inputs": [],
      "name": "executor",
      "outputs": [
        {
          "internalType": "contract IExecutor",
          "name": "",
          "type": "address"
        }
      ],
      "stateMutability": "view",
      "type": "function"
    },
    {
      "inputs": [
        {
          "internalType": "uint256",
          "name": "tokenId",
          "type": "uint256"
        }
      ],
      "name": "exists",
      "outputs": [
        {
          "internalType": "bool",
          "name": "",
          "type": "bool"
        }
      ],
      "stateMutability": "view",
      "type": "function"
    },
    {
      "inputs": [
        {
          "internalType": "uint256",
          "name": "tokenId",
          "type": "uint256"
        }
      ],
      "name": "getApproved",
      "outputs": [
        {
          "internalType": "address",
          "name": "",
          "type": "address"
        }
      ],
      "stateMutability": "view",
      "type": "function"
    },
    {
      "inputs": [
        {
          "internalType": "bytes32",
          "name": "role",
          "type": "bytes32"
        }
      ],
      "name": "getRoleAdmin",
      "outputs": [
        {
          "internalType": "bytes32",
          "name": "",
          "type": "bytes32"
        }
      ],
      "stateMutability": "view",
      "type": "function"
    },
    {
      "inputs": [
        {
          "internalType": "bytes32",
          "name": "role",
          "type": "bytes32"
        },
        {
          "internalType": "address",
          "name": "account",
          "type": "address"
        }
      ],
      "name": "grantRole",
      "outputs": [],
      "stateMutability": "nonpayable",
      "type": "function"
    },
    {
      "inputs": [
        {
          "internalType": "bytes32",
          "name": "role",
          "type": "bytes32"
        },
        {
          "internalType": "address",
          "name": "account",
          "type": "address"
        }
      ],
      "name": "hasRole",
      "outputs": [
        {
          "internalType": "bool",
          "name": "",
          "type": "bool"
        }
      ],
      "stateMutability": "view",
      "type": "function"
    },
    {
      "inputs": [
        {
          "internalType": "address",
          "name": "owner",
          "type": "address"
        },
        {
          "internalType": "address",
          "name": "operator",
          "type": "address"
        }
      ],
      "name": "isApprovedForAll",
      "outputs": [
        {
          "internalType": "bool",
          "name": "",
          "type": "bool"
        }
      ],
      "stateMutability": "view",
      "type": "function"
    },
    {
      "inputs": [
        {
          "internalType": "address",
          "name": "to",
          "type": "address"
        }
      ],
      "name": "mint",
      "outputs": [],
      "stateMutability": "nonpayable",
      "type": "function"
    },
    {
      "inputs": [],
      "name": "name",
      "outputs": [
        {
          "internalType": "string",
          "name": "",
          "type": "string"
        }
      ],
      "stateMutability": "view",
      "type": "function"
    },
    {
      "inputs": [],
      "name": "originContract",
      "outputs": [
        {
          "internalType": "address",
          "name": "",
          "type": "address"
        }
      ],
      "stateMutability": "view",
      "type": "function"
    },
    {
      "inputs": [],
      "name": "originDomain",
      "outputs": [
        {
          "internalType": "uint32",
          "name": "",
          "type": "uint32"
        }
      ],
      "stateMutability": "view",
      "type": "function"
    },
    {
      "inputs": [
        {
          "internalType": "uint256",
          "name": "tokenId",
          "type": "uint256"
        }
      ],
      "name": "ownerOf",
      "outputs": [
        {
          "internalType": "address",
          "name": "",
          "type": "address"
        }
      ],
      "stateMutability": "view",
      "type": "function"
    },
    {
      "inputs": [],
      "name": "promiseRouter",
      "outputs": [
        {
          "internalType": "address",
          "name": "",
          "type": "address"
        }
      ],
      "stateMutability": "view",
      "type": "function"
    },
    {
      "inputs": [
        {
          "internalType": "bytes32",
          "name": "role",
          "type": "bytes32"
        },
        {
          "internalType": "address",
          "name": "account",
          "type": "address"
        }
      ],
      "name": "renounceRole",
      "outputs": [],
      "stateMutability": "nonpayable",
      "type": "function"
    },
    {
      "inputs": [
        {
          "internalType": "bytes32",
          "name": "role",
          "type": "bytes32"
        },
        {
          "internalType": "address",
          "name": "account",
          "type": "address"
        }
      ],
      "name": "revokeRole",
      "outputs": [],
      "stateMutability": "nonpayable",
      "type": "function"
    },
    {
      "inputs": [
        {
          "internalType": "address",
          "name": "from",
          "type": "address"
        },
        {
          "internalType": "address",
          "name": "to",
          "type": "address"
        },
        {
          "internalType": "uint256",
          "name": "tokenId",
          "type": "uint256"
        }
      ],
      "name": "safeTransferFrom",
      "outputs": [],
      "stateMutability": "nonpayable",
      "type": "function"
    },
    {
      "inputs": [
        {
          "internalType": "address",
          "name": "from",
          "type": "address"
        },
        {
          "internalType": "address",
          "name": "to",
          "type": "address"
        },
        {
          "internalType": "uint256",
          "name": "tokenId",
          "type": "uint256"
        },
        {
          "internalType": "bytes",
          "name": "data",
          "type": "bytes"
        }
      ],
      "name": "safeTransferFrom",
      "outputs": [],
      "stateMutability": "nonpayable",
      "type": "function"
    },
    {
      "inputs": [
        {
          "internalType": "address",
          "name": "operator",
          "type": "address"
        },
        {
          "internalType": "bool",
          "name": "approved",
          "type": "bool"
        }
      ],
      "name": "setApprovalForAll",
      "outputs": [],
      "stateMutability": "nonpayable",
      "type": "function"
    },
    {
      "inputs": [],
      "name": "setOrigin",
      "outputs": [],
      "stateMutability": "nonpayable",
      "type": "function"
    },
    {
      "inputs": [
        {
          "internalType": "address",
          "name": "_contract",
          "type": "address"
        }
      ],
      "name": "setOriginContract",
      "outputs": [],
      "stateMutability": "nonpayable",
      "type": "function"
    },
    {
      "inputs": [
        {
          "internalType": "uint32",
          "name": "_domain",
          "type": "uint32"
        }
      ],
      "name": "setOriginDomain",
      "outputs": [],
      "stateMutability": "nonpayable",
      "type": "function"
    },
    {
      "inputs": [
        {
          "internalType": "uint256",
          "name": "tokenId",
          "type": "uint256"
        },
        {
          "internalType": "string",
          "name": "_tokenURI",
          "type": "string"
        }
      ],
      "name": "setTokenURI",
      "outputs": [],
      "stateMutability": "nonpayable",
      "type": "function"
    },
    {
      "inputs": [
        {
          "internalType": "bytes4",
          "name": "interfaceId",
          "type": "bytes4"
        }
      ],
      "name": "supportsInterface",
      "outputs": [
        {
          "internalType": "bool",
          "name": "",
          "type": "bool"
        }
      ],
      "stateMutability": "view",
      "type": "function"
    },
    {
      "inputs": [],
      "name": "symbol",
      "outputs": [
        {
          "internalType": "string",
          "name": "",
          "type": "string"
        }
      ],
      "stateMutability": "view",
      "type": "function"
    },
    {
      "inputs": [],
      "name": "testToken",
      "outputs": [
        {
          "internalType": "contract IERC20",
          "name": "",
          "type": "address"
        }
      ],
      "stateMutability": "view",
      "type": "function"
    },
    {
      "inputs": [
        {
          "internalType": "uint256",
          "name": "tokenId",
          "type": "uint256"
        }
      ],
      "name": "tokenURI",
      "outputs": [
        {
          "internalType": "string",
          "name": "",
          "type": "string"
        }
      ],
      "stateMutability": "view",
      "type": "function"
    },
    {
      "inputs": [
        {
          "internalType": "address",
          "name": "from",
          "type": "address"
        },
        {
          "internalType": "address",
          "name": "to",
          "type": "address"
        },
        {
          "internalType": "uint256",
          "name": "tokenId",
          "type": "uint256"
        }
      ],
      "name": "transferFrom",
      "outputs": [],
      "stateMutability": "nonpayable",
      "type": "function"
    }
  ],
  "bytecode": "0x60806040523480156200001157600080fd5b506040516200382e3803806200382e8339810160408190526200003491620003a6565b60405180604001604052806006815260200165149bd8dad95d60d21b8152506040518060400160405280600681526020016504f4e52414d560d41b81525081600090816200008391906200049f565b5060016200009282826200049f565b50620000a491506000905033620002e8565b620000bf6000805160206200380e83398151915233620002e8565b620000eb7f6bd6b5318a46e5fff572d5e4258a20774aab40cc35ac7680654b9081fcc82f8033620002e8565b6001600160a01b03831615620002df5760098054610100600160a81b0319166101006001600160a01b0386811691820292909217909255600b80546001600160a01b0319169185169190911790556040805163c34c08e560e01b8152905163c34c08e5916004808201926020929091908290030181865afa15801562000175573d6000803e3d6000fd5b505050506040513d601f19601f820116820180604052508101906200019b91906200056b565b600a80546001600160a01b0319166001600160a01b03929092169182179055620001d6906000805160206200380e83398151915290620002e8565b600c80546001600160a01b0319166001600160a01b0383169081179091556040516340c10f1960e01b81526340c10f199062000222903090683635c9adc5dea000009060040162000592565b600060405180830381600087803b1580156200023d57600080fd5b505af115801562000252573d6000803e3d6000fd5b5050600c5460095460405163095ea7b360e01b81526001600160a01b03928316945063095ea7b393506200029792610100909204909116906000199060040162000592565b6020604051808303816000875af1158015620002b7573d6000803e3d6000fd5b505050506040513d601f19601f82011682018060405250810190620002dd9190620005ab565b505b505050620005cf565b60008281526007602090815260408083206001600160a01b038516845290915290205460ff16620003895760008281526007602090815260408083206001600160a01b03851684529091529020805460ff19166001179055620003483390565b6001600160a01b0316816001600160a01b0316837f2f8788117e7eff1d82e926ec794901d17c78024a50270940304540a733656f0d60405160405180910390a45b5050565b6001600160a01b0381168114620003a357600080fd5b50565b600080600060608486031215620003bc57600080fd5b8351620003c9816200038d565b6020850151909350620003dc816200038d565b6040850151909250620003ef816200038d565b809150509250925092565b634e487b7160e01b600052604160045260246000fd5b600181811c908216806200042557607f821691505b6020821081036200044657634e487b7160e01b600052602260045260246000fd5b50919050565b601f8211156200049a57600081815260208120601f850160051c81016020861015620004755750805b601f850160051c820191505b81811015620004965782815560010162000481565b5050505b505050565b81516001600160401b03811115620004bb57620004bb620003fa565b620004d381620004cc845462000410565b846200044c565b602080601f8311600181146200050b5760008415620004f25750858301515b600019600386901b1c1916600185901b17855562000496565b600085815260208120601f198616915b828110156200053c578886015182559484019460019091019084016200051b565b50858210156200055b5787850151600019600388901b60f8161c191681555b5050505050600190811b01905550565b6000602082840312156200057e57600080fd5b81516200058b816200038d565b9392505050565b6001600160a01b03929092168252602082015260400190565b600060208284031215620005be57600080fd5b815180151581146200058b57600080fd5b61322f80620005df6000396000f3fe6080604052600436106101c05760003560e01c806301ffc9a7146101c5578063034baf0e146101fa57806306fdde031461021c578063081812fc1461023e578063095ea7b314610276578063141c604214610296578063162094c4146102ab57806323b872dd146102cb578063248a9ca3146102eb5780632f2ff15d1461031957806336568abe14610339578063388417821461035957806342842e0e1461037b57806342966c681461039b5780634f558e79146103bb5780636352211e146103db5780636895179d146103fb5780636a6278421461041b57806370a082311461043b57806372dbadfc1461045b57806384c4bd4b1461047b5780638ceadfc61461049257806391d14854146104b257806395d89b41146104d25780639afb416c146104e7578063a217fddf14610507578063a22cb4651461051c578063a315cc5f1461053c578063aba334a91461055c578063b5eabec51461057c578063b88d4fde1461058f578063c34c08e5146105af578063c87b56dd146105cf578063cee85d7e146105ef578063d539139314610628578063d547741f1461064a578063de4b05481461066a578063e985e9c51461068f578063fbbecf5d146106af575b600080fd5b3480156101d157600080fd5b506101e56101e0366004612511565b6106cf565b60405190151581526020015b60405180910390f35b34801561020657600080fd5b5061021a6102153660046125ee565b6106e0565b005b34801561022857600080fd5b506102316107b7565b6040516101f1919061269c565b34801561024a57600080fd5b5061025e6102593660046126af565b610849565b6040516001600160a01b0390911681526020016101f1565b34801561028257600080fd5b5061021a6102913660046126ec565b610870565b3480156102a257600080fd5b5061021a610985565b3480156102b757600080fd5b5061021a6102c636600461275e565b6109a0565b3480156102d757600080fd5b5061021a6102e63660046127a9565b6109fe565b3480156102f757600080fd5b5061030b6103063660046126af565b610a30565b6040519081526020016101f1565b34801561032557600080fd5b5061021a6103343660046127e5565b610a45565b34801561034557600080fd5b5061021a6103543660046127e5565b610a61565b34801561036557600080fd5b5061030b60008051602061317a83398151915281565b34801561038757600080fd5b5061021a6103963660046127a9565b610adf565b3480156103a757600080fd5b5061021a6103b63660046126af565b610afa565b3480156103c757600080fd5b506101e56103d63660046126af565b610b2b565b3480156103e757600080fd5b5061025e6103f63660046126af565b610b36565b34801561040757600080fd5b50600c5461025e906001600160a01b031681565b34801561042757600080fd5b5061021a610436366004612811565b610b6b565b34801561044757600080fd5b5061030b610456366004612811565b610be7565b34801561046757600080fd5b50600b5461025e906001600160a01b031681565b34801561048757600080fd5b5060085461030b9081565b34801561049e57600080fd5b5061021a6104ad36600461282c565b610c6d565b3480156104be57600080fd5b506101e56104cd3660046127e5565b610cb3565b3480156104de57600080fd5b50610231610cde565b3480156104f357600080fd5b50600d5461025e906001600160a01b031681565b34801561051357600080fd5b5061030b600081565b34801561052857600080fd5b5061021a61053736600461288c565b610ced565b34801561054857600080fd5b5061021a61055736600461282c565b610cf8565b34801561056857600080fd5b5061021a6105773660046128c8565b610e85565b61021a61058a3660046128e5565b610eb7565b34801561059b57600080fd5b5061021a6105aa366004612978565b611152565b3480156105bb57600080fd5b50600a5461025e906001600160a01b031681565b3480156105db57600080fd5b506102316105ea3660046126af565b611184565b3480156105fb57600080fd5b50600d5461061390600160a01b900463ffffffff1681565b60405163ffffffff90911681526020016101f1565b34801561063457600080fd5b5061030b60008051602061319a83398151915281565b34801561065657600080fd5b5061021a6106653660046127e5565b61118f565b34801561067657600080fd5b5060095461025e9061010090046001600160a01b031681565b34801561069b57600080fd5b506101e56106aa3660046129df565b6111ab565b3480156106bb57600080fd5b5061021a6106ca366004612811565b6111d9565b60006106da82611207565b92915050565b600b546001600160a01b031633146107385760405162461bcd60e51b815260206004820152601660248201527522bc3832b1ba32b210283937b6b4b9b2a937baba32b960511b60448201526064015b60405180910390fd5b6000806000838060200190518101906107519190612a09565b604080518a8152891515602082015263ffffffff858116828401528416606082015260808101839052905193965091945092507fca8f16abc1bceaefe48ce298eeaaee15752d0beca00d0c8f6eb6d4efd4856da5919081900360a00190a1505050505050565b6060600080546107c690612a4c565b80601f01602080910402602001604051908101604052809291908181526020018280546107f290612a4c565b801561083f5780601f106108145761010080835404028352916020019161083f565b820191906000526020600020905b81548152906001019060200180831161082257829003601f168201915b5050505050905090565b60006108548261122c565b506000908152600460205260409020546001600160a01b031690565b600061087b82610b36565b9050806001600160a01b0316836001600160a01b0316036108e85760405162461bcd60e51b815260206004820152602160248201527f4552433732313a20617070726f76616c20746f2063757272656e74206f776e656044820152603960f91b606482015260840161072f565b336001600160a01b0382161480610904575061090481336111ab565b6109765760405162461bcd60e51b815260206004820152603e60248201527f4552433732313a20617070726f76652063616c6c6572206973206e6f7420746f60448201527f6b656e206f776e6572206e6f7220617070726f76656420666f7220616c6c0000606482015260840161072f565b6109808383611251565b505050565b6000610990816112bf565b506009805460ff19166001179055565b60008051602061317a8339815191526109b8816112bf565b6109f88484848080601f0160208091040260200160405190810160405280939291908181526020018383808284376000920191909152506112c992505050565b50505050565b610a09335b8261134d565b610a255760405162461bcd60e51b815260040161072f90612a80565b6109808383836113ac565b60009081526007602052604090206001015490565b610a4e82610a30565b610a57816112bf565b6109808383611536565b6001600160a01b0381163314610ad15760405162461bcd60e51b815260206004820152602f60248201527f416363657373436f6e74726f6c3a2063616e206f6e6c792072656e6f756e636560448201526e103937b632b9903337b91039b2b63360891b606482015260840161072f565b610adb82826115bc565b5050565b61098083838360405180602001604052806000815250611152565b610b0333610a03565b610b1f5760405162461bcd60e51b815260040161072f90612a80565b610b2881611623565b50565b60006106da8261162c565b6000818152600260205260408120546001600160a01b0316806106da5760405162461bcd60e51b815260040161072f90612ace565b60095460ff161515600114610bc25760405162461bcd60e51b815260206004820181905260248201527f7075626c6963206d696e74206f6e6c79206f6e206f726967696e20636861696e604482015260640161072f565b6000610bcd60085490565b9050610bdd600880546001019055565b610adb8282611649565b60006001600160a01b038216610c515760405162461bcd60e51b815260206004820152602960248201527f4552433732313a2061646472657373207a65726f206973206e6f7420612076616044820152683634b21037bbb732b960b91b606482015260840161072f565b506001600160a01b031660009081526003602052604090205490565b610c778383611649565b610c8182826112c9565b6000805160206131da8339815191524630848685604051610ca6959493929190612b00565b60405180910390a1505050565b60009182526007602090815260408084206001600160a01b0393909316845291905290205460ff1690565b6060600180546107c690612a4c565b610adb338383611663565b60008051602061319a833981519152610d10816112bf565b600a546001600160a01b03163303610e3e57600d5460408051602036601f81018290048202830182019093528282526001600160a01b0390931692610d6e926000918190840183828082843760009201919091525061172d92505050565b6001600160a01b0316148015610de05750600d60149054906101000a900463ffffffff1663ffffffff16610dd86000368080601f01602080910402602001604051908101604052809392919081815260200183838082843760009201919091525061176792505050565b63ffffffff16145b610e3e5760405162461bcd60e51b815260206004820152602960248201527f4578706563746564206f726967696e20636f6e7472616374206f6e206f72696760448201526834b7103237b6b0b4b760b91b606482015260840161072f565b610e488484611649565b610e5283836112c9565b6000805160206131da8339815191524630858786604051610e77959493929190612b00565b60405180910390a150505050565b6000610e90816112bf565b50600d805463ffffffff909216600160a01b0263ffffffff60a01b19909216919091179055565b33610ec185610b36565b6001600160a01b031614610f095760405162461bcd60e51b815260206004820152600f60248201526e1b9bdd081e5bdd5c881c9bd8dad95d608a1b604482015260640161072f565b610f1284611623565b8563ffffffff1663676f65721480610f3357508563ffffffff1663676f7074145b156111015763a315cc5f60e01b60018215158103610f5957506346756fe360e11b905060005b60008233888888604051602401610f739493929190612b6d565b60408051601f19818403018152918152602080830180516001600160e01b03166001600160e01b0319909516949094179093528051610180810182526001600160a01b038c16815292830182905263ffffffff808e16918401919091528b166060830152336080830181905260a083015283151560c0830152600060e08301819052306101008401526101208301819052610140830181905290925067016345785d8a0000916101608101611029606485612bcb565b611034906061612bdf565b905260408051608081018252828152600c546001600160a01b031660208201529081018490529091506000906060810161106f606486612bcb565b61107a906061612bdf565b9052600954604051630d72537f60e21b815291925061010090046001600160a01b0316906335c94dfc906110b2908490600401612bfe565b6020604051808303816000875af11580156110d1573d6000803e3d6000fd5b505050506040513d601f19601f820116820180604052508101906110f59190612d21565b50505050505050611149565b7fca44306fdbf15500fd3e177e7107db8b76a1c459f605663a86240e22f09f058d8663ffffffff16868633878760405161114096959493929190612d3a565b60405180910390a15b50505050505050565b61115c338361134d565b6111785760405162461bcd60e51b815260040161072f90612a80565b6109f88484848461179c565b60606106da826117cf565b61119882610a30565b6111a1816112bf565b61098083836115bc565b6001600160a01b03918216600090815260056020908152604080832093909416825291909152205460ff1690565b60006111e4816112bf565b50600d80546001600160a01b0319166001600160a01b0392909216919091179055565b60006001600160e01b03198216637965db0b60e01b14806106da57506106da826118d7565b6112358161162c565b610b285760405162461bcd60e51b815260040161072f90612ace565b600081815260046020526040902080546001600160a01b0319166001600160a01b038416908117909155819061128682610b36565b6001600160a01b03167f8c5be1e5ebec7d5bd14f71427d1e84f3dd0314c0f7b2291e5b200ac8c7c3b92560405160405180910390a45050565b610b288133611927565b6112d28261162c565b6113355760405162461bcd60e51b815260206004820152602e60248201527f45524337323155524953746f726167653a2055524920736574206f66206e6f6e60448201526d32bc34b9ba32b73a103a37b5b2b760911b606482015260840161072f565b60008281526006602052604090206109808282612dce565b60008061135983610b36565b9050806001600160a01b0316846001600160a01b03161480611380575061138081856111ab565b806113a45750836001600160a01b031661139984610849565b6001600160a01b0316145b949350505050565b826001600160a01b03166113bf82610b36565b6001600160a01b0316146114235760405162461bcd60e51b815260206004820152602560248201527f4552433732313a207472616e736665722066726f6d20696e636f72726563742060448201526437bbb732b960d91b606482015260840161072f565b6001600160a01b0382166114855760405162461bcd60e51b8152602060048201526024808201527f4552433732313a207472616e7366657220746f20746865207a65726f206164646044820152637265737360e01b606482015260840161072f565b611490600082611251565b6001600160a01b03831660009081526003602052604081208054600192906114b9908490612e8d565b90915550506001600160a01b03821660009081526003602052604081208054600192906114e7908490612ea4565b909155505060008181526002602052604080822080546001600160a01b0319166001600160a01b0386811691821790925591518493918716916000805160206131ba83398151915291a4505050565b6115408282610cb3565b610adb5760008281526007602090815260408083206001600160a01b03851684529091529020805460ff191660011790556115783390565b6001600160a01b0316816001600160a01b0316837f2f8788117e7eff1d82e926ec794901d17c78024a50270940304540a733656f0d60405160405180910390a45050565b6115c68282610cb3565b15610adb5760008281526007602090815260408083206001600160a01b0385168085529252808320805460ff1916905551339285917ff6391f5c32d9c69d2a47ea670b442974b53935d1edc7fd64eb21e047a839171b9190a45050565b610b288161198b565b6000908152600260205260409020546001600160a01b0316151590565b610adb8282604051806020016040528060008152506119cb565b816001600160a01b0316836001600160a01b0316036116c05760405162461bcd60e51b815260206004820152601960248201527822a9219b99189d1030b8383937bb32903a379031b0b63632b960391b604482015260640161072f565b6001600160a01b03838116600081815260056020908152604080832094871680845294825291829020805460ff191686151590811790915591519182527f17307eab39ab6107e8899845ad3d59bd9653f200f220920489ca2b5937696c31910160405180910390a3505050565b60008061173a83826119fe565b905061176061174882611a22565b611753906024612ea4565b62ffffff19831690611a85565b9392505050565b60008061177483826119fe565b905061176061178282611a22565b61178d906020612ea4565b62ffffff198316906004611a8f565b6117a78484846113ac565b6117b384848484611abf565b6109f85760405162461bcd60e51b815260040161072f90612ebc565b60606117da8261122c565b600082815260066020526040812080546117f390612a4c565b80601f016020809104026020016040519081016040528092919081815260200182805461181f90612a4c565b801561186c5780601f106118415761010080835404028352916020019161186c565b820191906000526020600020905b81548152906001019060200180831161184f57829003601f168201915b50505050509050600061188a60408051602081019091526000815290565b9050805160000361189c575092915050565b8151156118ce5780826040516020016118b6929190612f0e565b60405160208183030381529060405292505050919050565b6113a484611bc0565b60006001600160e01b031982166380ac58cd60e01b148061190857506001600160e01b03198216635b5e139f60e01b145b806106da57506301ffc9a760e01b6001600160e01b03198316146106da565b6119318282610cb3565b610adb57611949816001600160a01b03166014611c33565b611954836020611c33565b604051602001611965929190612f3d565b60408051601f198184030181529082905262461bcd60e51b825261072f9160040161269c565b61199481611dce565b600081815260066020526040902080546119ad90612a4c565b159050610b28576000818152600660205260408120610b28916124ad565b6119d58383611e57565b6119e26000848484611abf565b6109805760405162461bcd60e51b815260040161072f90612ebc565b815160009060208401611a1964ffffffffff85168284611f77565b95945050505050565b600080611a3462ffffff198416611fbe565b6001600160601b031690506038811015611a7a5760405162461bcd60e51b8152602060048201526007602482015266042d8cadccee8d60cb1b604482015260640161072f565b611760603882612e8d565b6000611760838360145b6000611a9c826020612fac565b611aa7906008612fcf565b60ff16611ab5858585611fcd565b901c949350505050565b60006001600160a01b0384163b15611bb557604051630a85bd0160e11b81526001600160a01b0385169063150b7a0290611b03903390899088908890600401612ff8565b6020604051808303816000875af1925050508015611b3e575060408051601f3d908101601f19168201909252611b3b9181019061302b565b60015b611b9b573d808015611b6c576040519150601f19603f3d011682016040523d82523d6000602084013e611b71565b606091505b508051600003611b935760405162461bcd60e51b815260040161072f90612ebc565b805181602001fd5b6001600160e01b031916630a85bd0160e11b1490506113a4565b506001949350505050565b6060611bcb8261122c565b6000611be260408051602081019091526000815290565b90506000815111611c025760405180602001604052806000815250611760565b80611c0c84612112565b604051602001611c1d929190612f0e565b6040516020818303038152906040529392505050565b60606000611c42836002612bdf565b611c4d906002612ea4565b6001600160401b03811115611c6457611c64612543565b6040519080825280601f01601f191660200182016040528015611c8e576020820181803683370190505b509050600360fc1b81600081518110611ca957611ca9613048565b60200101906001600160f81b031916908160001a905350600f60fb1b81600181518110611cd857611cd8613048565b60200101906001600160f81b031916908160001a9053506000611cfc846002612bdf565b611d07906001612ea4565b90505b6001811115611d7f576f181899199a1a9b1b9c1cb0b131b232b360811b85600f1660108110611d3b57611d3b613048565b1a60f81b828281518110611d5157611d51613048565b60200101906001600160f81b031916908160001a90535060049490941c93611d788161305e565b9050611d0a565b5083156117605760405162461bcd60e51b815260206004820181905260248201527f537472696e67733a20686578206c656e67746820696e73756666696369656e74604482015260640161072f565b6000611dd982610b36565b9050611de6600083611251565b6001600160a01b0381166000908152600360205260408120805460019290611e0f908490612e8d565b909155505060008281526002602052604080822080546001600160a01b0319169055518391906001600160a01b038416906000805160206131ba833981519152908390a45050565b6001600160a01b038216611ead5760405162461bcd60e51b815260206004820181905260248201527f4552433732313a206d696e7420746f20746865207a65726f2061646472657373604482015260640161072f565b611eb68161162c565b15611f025760405162461bcd60e51b815260206004820152601c60248201527b115490cdcc8c4e881d1bdad95b88185b1c9958591e481b5a5b9d195960221b604482015260640161072f565b6001600160a01b0382166000908152600360205260408120805460019290611f2b908490612ea4565b909155505060008181526002602052604080822080546001600160a01b0319166001600160a01b03861690811790915590518392906000805160206131ba833981519152908290a45050565b600080611f848385612ea4565b9050604051811115611f94575060005b80600003611fa95762ffffff19915050611760565b5050606092831b9190911790911b1760181b90565b60181c6001600160601b031690565b60008160ff16600003611fe257506000611760565b611feb84611fbe565b6001600160601b031661200160ff841685612ea4565b111561205b5761204261201d8560781c6001600160601b031690565b6001600160601b031661202f86611fbe565b6001600160601b0316858560ff16612212565b60405162461bcd60e51b815260040161072f919061269c565b60208260ff1611156120d25760405162461bcd60e51b815260206004820152603a60248201527f54797065644d656d566965772f696e646578202d20417474656d7074656420746044820152796f20696e646578206d6f7265207468616e20333220627974657360301b606482015260840161072f565b6008820260006120eb8660781c6001600160601b031690565b6001600160601b031690506000600160ff1b60001984011d91909501511695945050505050565b6060816000036121395750506040805180820190915260018152600360fc1b602082015290565b8160005b8115612163578061214d81613075565b915061215c9050600a83612bcb565b915061213d565b6000816001600160401b0381111561217d5761217d612543565b6040519080825280601f01601f1916602001820160405280156121a7576020820181803683370190505b5090505b84156113a4576121bc600183612e8d565b91506121c9600a8661308e565b6121d4906030612ea4565b60f81b8183815181106121e9576121e9613048565b60200101906001600160f81b031916908160001a90535061220b600a86612bcb565b94506121ab565b6060600061221f86612280565b915050600061222d86612280565b915050600061223b86612280565b915050600061224986612280565b9150508383838360405160200161226394939291906130a2565b604051602081830303815290604052945050505050949350505050565b600080601f5b600f8160ff1611156122d557600061229f826008612fcf565b60ff1685901c90506122b08161232e565b61ffff16841793508160ff166010146122cb57601084901b93505b5060001901612286565b50600f5b60ff8160ff1610156123285760006122f2826008612fcf565b60ff1685901c90506123038161232e565b61ffff16831792508160ff1660001461231e57601083901b92505b50600019016122d9565b50915091565b600061234060048360ff16901c612360565b60ff1661ffff919091161760081b61235782612360565b60ff1617919050565b600060f08083179060ff8216900361237b5750603092915050565b8060ff1660f10361238f5750603192915050565b8060ff1660f2036123a35750603292915050565b8060ff1660f3036123b75750603392915050565b8060ff1660f4036123cb5750603492915050565b8060ff1660f5036123df5750603592915050565b8060ff1660f6036123f35750603692915050565b8060ff1660f7036124075750603792915050565b8060ff1660f80361241b5750603892915050565b8060ff1660f90361242f5750603992915050565b8060ff1660fa036124435750606192915050565b8060ff1660fb036124575750606292915050565b8060ff1660fc0361246b5750606392915050565b8060ff1660fd0361247f5750606492915050565b8060ff1660fe036124935750606592915050565b8060ff1660ff036124a75750606692915050565b50919050565b5080546124b990612a4c565b6000825580601f106124c9575050565b601f016020900490600052602060002090810190610b2891905b808211156124f757600081556001016124e3565b5090565b6001600160e01b031981168114610b2857600080fd5b60006020828403121561252357600080fd5b8135611760816124fb565b8035801515811461253e57600080fd5b919050565b634e487b7160e01b600052604160045260246000fd5b60006001600160401b038084111561257357612573612543565b604051601f8501601f19908116603f0116810190828211818310171561259b5761259b612543565b816040528093508581528686860111156125b457600080fd5b858560208301376000602087830101525050509392505050565b600082601f8301126125df57600080fd5b61176083833560208501612559565b60008060006060848603121561260357600080fd5b833592506126136020850161252e565b915060408401356001600160401b0381111561262e57600080fd5b61263a868287016125ce565b9150509250925092565b60005b8381101561265f578181015183820152602001612647565b838111156109f85750506000910152565b60008151808452612688816020860160208601612644565b601f01601f19169290920160200192915050565b6020815260006117606020830184612670565b6000602082840312156126c157600080fd5b5035919050565b6001600160a01b03169052565b80356001600160a01b038116811461253e57600080fd5b600080604083850312156126ff57600080fd5b612708836126d5565b946020939093013593505050565b60008083601f84011261272857600080fd5b5081356001600160401b0381111561273f57600080fd5b60208301915083602082850101111561275757600080fd5b9250929050565b60008060006040848603121561277357600080fd5b8335925060208401356001600160401b0381111561279057600080fd5b61279c86828701612716565b9497909650939450505050565b6000806000606084860312156127be57600080fd5b6127c7846126d5565b92506127d5602085016126d5565b9150604084013590509250925092565b600080604083850312156127f857600080fd5b82359150612808602084016126d5565b90509250929050565b60006020828403121561282357600080fd5b611760826126d5565b60008060006060848603121561284157600080fd5b61284a846126d5565b92506020840135915060408401356001600160401b0381111561286c57600080fd5b8401601f8101861361287d57600080fd5b61263a86823560208401612559565b6000806040838503121561289f57600080fd5b6128a8836126d5565b91506128086020840161252e565b63ffffffff81168114610b2857600080fd5b6000602082840312156128da57600080fd5b8135611760816128b6565b600080600080600080600060c0888a03121561290057600080fd5b873561290b816128b6565b9650602088013561291b816128b6565b9550612929604089016126d5565b94506060880135935060808801356001600160401b0381111561294b57600080fd5b6129578a828b01612716565b909450925061296a905060a0890161252e565b905092959891949750929550565b6000806000806080858703121561298e57600080fd5b612997856126d5565b93506129a5602086016126d5565b92506040850135915060608501356001600160401b038111156129c757600080fd5b6129d3878288016125ce565b91505092959194509250565b600080604083850312156129f257600080fd5b6129fb836126d5565b9150612808602084016126d5565b600080600060608486031215612a1e57600080fd5b8351612a29816128b6565b6020850151909350612a3a816128b6565b80925050604084015190509250925092565b600181811c90821680612a6057607f821691505b6020821081036124a757634e487b7160e01b600052602260045260246000fd5b6020808252602e908201527f4552433732313a2063616c6c6572206973206e6f7420746f6b656e206f776e6560408201526d1c881b9bdc88185c1c1c9bdd995960921b606082015260800190565b602080825260189082015277115490cdcc8c4e881a5b9d985b1a59081d1bdad95b88125160421b604082015260600190565b8581526001600160a01b038581166020830152604082018590528316606082015260a060808201819052600090612b3990830184612670565b979650505050505050565b81835281816020850137506000828201602090810191909152601f909101601f19169091010190565b60018060a01b0385168152836020820152606060408201526000612b95606083018486612b44565b9695505050505050565b634e487b7160e01b600052601260045260246000fd5b634e487b7160e01b600052601160045260246000fd5b600082612bda57612bda612b9f565b500490565b6000816000190483118215151615612bf957612bf9612bb5565b500290565b602081526000825160806020840152612c1b60a0840182516126c8565b60208101516101808060c0860152612c37610220860183612670565b91506040830151612c5060e087018263ffffffff169052565b506060830151610100612c6a8188018363ffffffff169052565b60808501519150610120612c80818901846126c8565b60a08601519250610140612c96818a01856126c8565b60c08701519350610160612cad818b018615159052565b60e08801518015158b8801529450838801519550612ccf6101a08b01876126c8565b918701516101c08a01528601516101e089015290940151610200870152505060208501519150612d0260408501836126c8565b6040850151606085015260608501516080850152809250505092915050565b600060208284031215612d3357600080fd5b5051919050565b8681526001600160a01b038681166020830152604082018690528416606082015260a060808201819052600090612d749083018486612b44565b98975050505050505050565b601f82111561098057600081815260208120601f850160051c81016020861015612da75750805b601f850160051c820191505b81811015612dc657828155600101612db3565b505050505050565b81516001600160401b03811115612de757612de7612543565b612dfb81612df58454612a4c565b84612d80565b602080601f831160018114612e305760008415612e185750858301515b600019600386901b1c1916600185901b178555612dc6565b600085815260208120601f198616915b82811015612e5f57888601518255948401946001909101908401612e40565b5085821015612e7d5787850151600019600388901b60f8161c191681555b5050505050600190811b01905550565b600082821015612e9f57612e9f612bb5565b500390565b60008219821115612eb757612eb7612bb5565b500190565b60208082526032908201527f4552433732313a207472616e7366657220746f206e6f6e20455243373231526560408201527131b2b4bb32b91034b6b83632b6b2b73a32b960711b606082015260800190565b60008351612f20818460208801612644565b835190830190612f34818360208801612644565b01949350505050565b76020b1b1b2b9b9a1b7b73a3937b61d1030b1b1b7bab73a1604d1b815260008351612f6f816017850160208801612644565b7001034b99036b4b9b9b4b733903937b6329607d1b6017918401918201528351612fa0816028840160208801612644565b01602801949350505050565b600060ff821660ff841680821015612fc657612fc6612bb5565b90039392505050565b600060ff821660ff84168160ff0481118215151615612ff057612ff0612bb5565b029392505050565b6001600160a01b0385811682528416602082015260408101839052608060608201819052600090612b9590830184612670565b60006020828403121561303d57600080fd5b8151611760816124fb565b634e487b7160e01b600052603260045260246000fd5b60008161306d5761306d612bb5565b506000190190565b60006001820161308757613087612bb5565b5060010190565b60008261309d5761309d612b9f565b500690565b7f54797065644d656d566965772f696e646578202d204f76657272616e20746865815274040ecd2caee5c40a6d8d2c6ca40d2e640c2e84060f605b1b60208201526001600160d01b031960d086811b821660358401526e040eed2e8d040d8cadccee8d04060f608b1b603b840181905286821b8316604a8501527f2e20417474656d7074656420746f20696e646578206174206f666673657420306050850152600f60fb1b607085015285821b83166071850152607784015283901b166086820152601760f91b608c8201526000608d8201612b9556fe6bd6b5318a46e5fff572d5e4258a20774aab40cc35ac7680654b9081fcc82f809f2df0fed2c77648de5860a4cc508cd0818c85b8b8a1ab4ceeef8d981c8956a6ddf252ad1be2c89b69c2b068fc378daa952ba7f163c4a11628f55a4df523b3efed4d1d6527a3e9247b47d50765515f419a3ba68ff0627a0f85119c12040715b1a2646970667358221220cde48095a1de9b2a202f0e14cf356126b254cdf9a12ef9a7ef633ea6e5a23c4064736f6c634300080f00339f2df0fed2c77648de5860a4cc508cd0818c85b8b8a1ab4ceeef8d981c8956a6",
  "linkReferences": {},
  "deployedLinkReferences": {}
}